{
  "contractName": "Fibonacci",
  "abi": [
    {
      "constant": false,
      "inputs": [
        {
          "internalType": "uint256",
          "name": "n",
          "type": "uint256"
        }
      ],
      "name": "generateFib",
      "outputs": [],
      "payable": false,
      "stateMutability": "nonpayable",
      "type": "function"
    },
    {
      "constant": true,
      "inputs": [
        {
          "internalType": "uint256",
          "name": "n",
          "type": "uint256"
        }
      ],
      "name": "callFib",
      "outputs": [
        {
          "internalType": "uint256",
          "name": "",
          "type": "uint256"
        }
      ],
      "payable": false,
      "stateMutability": "pure",
      "type": "function"
    }
  ],
  "bytecode": "0x608060405234801561001057600080fd5b50610210806100206000396000f3fe608060405234801561001057600080fd5b50600436106100365760003560e01c80632ddec39b1461003b5780639c7dd53c14610069575b600080fd5b6100676004803603602081101561005157600080fd5b81019080803590602001909291905050506100ab565b005b6100956004803603602081101561007f57600080fd5b8101908080359060200190929190505050610186565b6040518082815260200191505060405180910390f35b6000600190806001815401808255809150509060018203906000526020600020016000909192909190915055506000600190806001815401808255809150509060018203906000526020600020016000909192909190915055506000600290505b8181101561018257600080600283038154811061012557fe5b90600052602060002001546000600184038154811061014057fe5b9060005260206000200154019080600181540180825580915050906001820390600052602060002001600090919290919091505550808060010191505061010c565b5050565b60008082141561019957600090506101d6565b6000600190506000600190506000600290505b848110156101cf57600082840190508293508092505080806001019150506101ac565b5080925050505b91905056fea265627a7a723158207684aa9e4e237614adf584c32c1ef8ebaef9dcb09f0765bf5a00a5801618bdcd64736f6c63430005100032",
  "source": "// SPDX-License-Identifier: MIT\r\npragma solidity >=0.4.22 <0.9.0;\r\n\r\ncontract Fibonacci {\r\n    uint256[] fibseries;\r\n\r\n    // n = how many in the series to return\r\n    function generateFib(uint256 n) public {\r\n        // set 1st and 2nd entries\r\n        fibseries.push(1);\r\n        fibseries.push(1);\r\n\r\n        // generate subsequent entries\r\n        for (uint256 i = 2; i < n; i++) {\r\n            fibseries.push(fibseries[i - 1] + fibseries[i - 2]);\r\n        }\r\n    }\r\n\r\n    function callFib(uint256 n) external pure returns (uint256) {\r\n        if (n == 0) {\r\n            return 0;\r\n        }\r\n        uint256 a = 1;\r\n        uint256 b = 1;\r\n        for (uint256 i = 2; i < n; i++) {\r\n            uint256 c = a + b;\r\n            a = b;\r\n            b = c;\r\n        }\r\n        return b;\r\n    }\r\n}\r\n",
  "sourcePath": "C:\\MyProjects\\eth-banchmark\\truffle\\contracts\\Fibonacci.sol",
  "compiler": {
    "name": "solc",
    "version": "0.5.16+commit.9c3226ce.Emscripten.clang"
  },
  "schemaVersion": "3.4.4",
  "updatedAt": "2021-12-31T11:11:12.244Z",
  "networkType": "ethereum",
  "devdoc": {
    "methods": {}
  },
  "userdoc": {
    "methods": {}
  }
}