{
  "contractName": "Fibonacci",
  "abi": [
    {
      "constant": false,
      "inputs": [
        {
          "internalType": "uint256",
          "name": "n",
          "type": "uint256"
        }
      ],
      "name": "generateFib",
      "outputs": [],
      "payable": false,
      "stateMutability": "nonpayable",
      "type": "function"
    },
    {
      "constant": true,
      "inputs": [
        {
          "internalType": "uint256",
          "name": "n",
          "type": "uint256"
        }
      ],
      "name": "callFib",
      "outputs": [
        {
          "internalType": "uint256",
          "name": "",
          "type": "uint256"
        }
      ],
      "payable": false,
      "stateMutability": "pure",
      "type": "function"
    }
  ],
  "bytecode": "0x608060405234801561001057600080fd5b50610210806100206000396000f3fe608060405234801561001057600080fd5b50600436106100365760003560e01c80632ddec39b1461003b5780639c7dd53c14610069575b600080fd5b6100676004803603602081101561005157600080fd5b81019080803590602001909291905050506100ab565b005b6100956004803603602081101561007f57600080fd5b8101908080359060200190929190505050610186565b6040518082815260200191505060405180910390f35b6000600190806001815401808255809150509060018203906000526020600020016000909192909190915055506000600190806001815401808255809150509060018203906000526020600020016000909192909190915055506000600290505b8181101561018257600080600283038154811061012557fe5b90600052602060002001546000600184038154811061014057fe5b9060005260206000200154019080600181540180825580915050906001820390600052602060002001600090919290919091505550808060010191505061010c565b5050565b60008082141561019957600090506101d6565b6000600190506000600190506000600290505b848110156101cf57600082840190508293508092505080806001019150506101ac565b5080925050505b91905056fea265627a7a72315820af8d920898097734a07221bb2a3cee6f9baa128b3bd25ca2a4f870d5e37926e364736f6c63430005100032",
  "source": "// SPDX-License-Identifier: MIT\npragma solidity >=0.4.22 <0.9.0;\n\ncontract Fibonacci {\n    uint256[] fibseries;\n\n    // n = how many in the series to return\n    function generateFib(uint256 n) public {\n        // set 1st and 2nd entries\n        fibseries.push(1);\n        fibseries.push(1);\n\n        // generate subsequent entries\n        for (uint256 i = 2; i < n; i++) {\n            fibseries.push(fibseries[i - 1] + fibseries[i - 2]);\n        }\n    }\n\n    function callFib(uint256 n) external pure returns (uint256) {\n        if (n == 0) {\n            return 0;\n        }\n        uint256 a = 1;\n        uint256 b = 1;\n        for (uint256 i = 2; i < n; i++) {\n            uint256 c = a + b;\n            a = b;\n            b = c;\n        }\n        return b;\n    }\n}\n",
  "sourcePath": "/home/peti/Projects/eth-banchmark/truffle/contracts/Fibonacci.sol",
  "compiler": {
    "name": "solc",
    "version": "0.5.16+commit.9c3226ce.Emscripten.clang"
  },
  "schemaVersion": "3.4.3",
  "updatedAt": "2021-11-07T10:14:55.805Z",
  "devdoc": {
    "methods": {}
  },
  "userdoc": {
    "methods": {}
  }
}